:020000040800F2
:10000000002000206D5E0008715C0008735C000831
:1000100000000000000000000000000000000000E0
:10002000000000000000000000000000755C0008F7
:100030000000000000000000775C0008795C000808
:10004000BD5E0008BD5E0008BD5E0008BD5E000824
:10005000BD5E0008BD5E0008BD5E0008BD5E000814
:10006000BD5E0008BD5E0008BD5E0008BD5E000804
:10007000BD5E0008BD5E0008BD5E0008855C00082E
:10008000BD5E0008BD5E000800000000BD5E000807
:10009000BD5E0008BD5E0008BD5E0008955C0008FE
:1000A000BD5E0008BD5E0008BD5E0008B55C0008CE
:1000B000BD5E000800000000BD5E000800000000FA
:1000C00010B5064C2378002B07D1054B002B02D02E
:1000D000044800E000BF0123237010BD8802002007
:1000E00000000000387F0008044B10B5002B03D03F
:1000F0000349044800E000BF10BDC04600000000F6
:100100008C020020387F00080023C25C0133002AE3
:10011000FBD1581E7047000002B4714649084900DF
:10012000095649008E4402BC7047C04602B471466D
:1001300049084900095C49008E4402BC7047C0462A
:10014000002243088B4274D303098B425FD3030A16
:100150008B4244D3030B8B4228D3030C8B420DD329
:10016000FF22090212BA030C8B4202D312120902B7
:1001700065D0030B8B4219D300E0090AC30B8B42F5
:1001800001D3CB03C01A5241830B8B4201D38B03A3
:10019000C01A5241430B8B4201D34B03C01A524148
:1001A000030B8B4201D30B03C01A5241C30A8B428B
:1001B00001D3CB02C01A5241830A8B4201D38B0276
:1001C000C01A5241430A8B4201D34B02C01A52411A
:1001D000030A8B4201D30B02C01A5241CDD2C3098C
:1001E0008B4201D3CB01C01A524183098B4201D308
:1001F0008B01C01A524143098B4201D34B01C01AF3
:10020000524103098B4201D30B01C01A5241C3086A
:100210008B4201D3CB00C01A524183088B4201D3D9
:100220008B00C01A524143088B4201D34B00C01AC5
:100230005241411A00D20146524110467047FFE731
:1002400001B5002000F0F0F802BDC0460029F7D04B
:1002500076E7704703460B437FD4002243088B4266
:1002600074D303098B425FD3030A8B4244D3030B3D
:100270008B4228D3030C8B420DD3FF22090212BA02
:10028000030C8B4202D31212090265D0030B8B427E
:1002900019D300E0090AC30B8B4201D3CB03C01A68
:1002A0005241830B8B4201D38B03C01A5241430B43
:1002B0008B4201D34B03C01A5241030B8B4201D333
:1002C0000B03C01A5241C30A8B4201D3CB02C01A9E
:1002D0005241830A8B4201D38B02C01A5241430A16
:1002E0008B4201D34B02C01A5241030A8B4201D305
:1002F0000B02C01A5241CDD2C3098B4201D3CB01AC
:10030000C01A524183098B4201D38B01C01A52415A
:1003100043098B4201D34B01C01A524103098B425E
:1003200001D30B01C01A5241C3088B4201D3CB0049
:10033000C01A524183088B4201D38B00C01A52412C
:1003400043088B4201D34B00C01A5241411A00D2DC
:1003500001465241104670475DE0CA0F00D0494245
:10036000031000D34042534000229C4603098B42B5
:100370002DD3030A8B4212D3FC22890112BA030A3D
:100380008B420CD3890192118B4208D389019211BF
:100390008B4204D389013AD0921100E08909C30944
:1003A0008B4201D3CB01C01A524183098B4201D346
:1003B0008B01C01A524143098B4201D34B01C01A31
:1003C000524103098B4201D30B01C01A5241C308A9
:1003D0008B4201D3CB00C01A524183088B4201D318
:1003E0008B00C01A5241D9D243088B4201D34B0033
:1003F000C01A5241411A00D20146634652415B1075
:10040000104601D34042002B00D549427047634655
:100410005B1000D3404201B5002000F005F802BD9A
:100420000029F8D016E770477047C0468446101C74
:1004300062468C46191C634600E0C0461FB501F0B9
:10044000FBFC002801D40021C8421FBD10B501F0FB
:1004500055FC4042013010BD10B501F0EDFC002804
:1004600001DB002010BD012010BDC04610B501F019
:10047000E3FC002801DD002010BD012010BDC046B6
:1004800010B501F075FC002801DC002010BD012032
:1004900010BDC04610B501F06BFC002801DA002049
:1004A00010BD012010BDC046F0B5C6464E02470241
:1004B000760A7B0A4400C50FF7004800984600B54D
:1004C000240E2A00DB00000EC90FBC468D4267D007
:1004D000221A002A00DCA5E000283AD1002F00D122
:1004E00093E0511E002900D0BCE00124DB1B5A011F
:1004F00046D59B019E09300002F040FC053886403D
:10050000844200DD9DE0041B320020200134E240E3
:10051000041BA64033005E1EB341002413435A0758
:1005200004D00F221A40042A00D004335A0129D5DE
:100530000134FF2C00D181E02A009B015B0AE4B268
:100540005B02E405580AD2072043104304BC9046DE
:10055000F0BDFF2CE3D080213800C9040843844655
:100560001B2A00DD82E020206146D140821A6046CD
:1005700090400200501E82410A439B1A5A01B8D48F
:100580005A07CED1DE082A00FF2C3AD1002E00D126
:10059000AEE08023DB0333435B025B0AFF24CFE73B
:1005A000211A002952DD002831D0FF2CB7D080203D
:1005B0003E00C0040643B4461B2900DDAAE0202605
:1005C0006046C840711A66468E4031004E1EB141E9
:1005D00001435B185901D3D50134FF2C00D187E0CA
:1005E000012278491A405B080B40134397E7002C1F
:1005F00000D0A7E0002B00D0B6E03B1E62D1002661
:10060000002273025B0AE4B29AE7140087E7002F26
:100610004DD0481E002857D1634401245A01AFD55C
:100620000224DDE7002A24D1621CD2B2012ADEDDD9
:10063000DE1B720135D5FE1A0D005CE72A0000238F
:100640007EE73300604A241A134068E7002963D12B
:10065000611CC8B201284EDDFF2949D063445B0804
:100660000C005CE7FF2A41D00A0079E701229B1ABF
:1006700084E7002C1DD0FF2822D08024E4045242BD
:1006800023431B2A00DD8AE01C002025D440AA1A3F
:1006900093405A1E9341234362460400D31A0D002F
:1006A00025E7002E00D026E700220024A9E70C0051
:1006B00035E7002B4DD0D243002AEDD0FF28E0D102
:1006C0006346FF240D002AE7FF290FD0010073E7DE
:1006D000002B61D0FF24002F00D120E7802241466B
:1006E000D203114202D0164200D13B00FF2416E78C
:1006F000FF24002324E7002CEAD1002B58D0002F40
:1007000000D10CE763445A0100D439E72E4A0C00AB
:10071000134004E701215CE7002C1ED1002B40D0E0
:10072000C94300290BD0FF2836D01B2947DC1C0009
:100730002026CC40711A8B40591E8B4123436344C1
:10074000040047E7002B18D13B1E2DD00D00FF24DD
:10075000E5E63B0004000D00E1E6FF281CD0802404
:10076000E40449422343E0E7002F00D1D7E6DE1B33
:1007700072011FD5FB1A0D00D1E6FF24002F00D116
:10078000CDE680224046D2031042AFD01642ADD112
:100790003B000D00FF24C2E66346FF24BFE60123B1
:1007A0007AE73B000400BAE680260022F603F0E672
:1007B0003B00B4E6331E00D0E2E6002221E701232D
:1007C000BDE7C046FFFFFF7DFFFFFFFBF0B55746CB
:1007D0004E46DE464546E0B544024300C60F83B0B0
:1007E0000F1C640A1B0EB24653D0FF2B27D0802269
:1007F000E400D20414437F225242904698440023DE
:1008000099469B467D027800FB0F6D0A000E00930F
:1008100024D0FF2846D080230021ED00DB041D43B7
:100820007F384746381A4F460F43BF00B94633005A
:10083000009A874F53404A46BA5801939746002C76
:100840004ED108239946F7339846FD3B9B467D02DF
:100850007800FB0F6D0A000E0093DAD1002D26D12F
:10086000002001213300009A7A4F53404246101A6B
:100870004A460A439200BA581D009746009B2C0036
:100880009A468B465B46022B31D15346FF2100240A
:1008900038E0002C17D104239946002398460133F1
:1008A0009B46AFE7FF20002D0BD10221DAE728009D
:1008B00002F064FA431F9D4076235B42181A002120
:1008C000AFE70321ADE7200002F058FA431F9C4038
:1008D00076235B421B1A9846002399469B4691E774
:1008E0000C239946F3339846FC3B9B468AE7032B3F
:1008F00000D1A5E05546012B00D081E00123002165
:1009000000242B406402C905600ADB070843184332
:1009100003B03CBC90469946A246AB46F0BD80244D
:100920000023E403FF21EDE7FF210024EAE7012390
:10093000591A1B2966DD019A134000210024E1E7C2
:100940008023DB031C4238D01D4251D01C4364027B
:10095000640A3300FF21D5E763016C01A3423BD257
:100960001B260021013801251F0049005B00002FD4
:1009700001DB9C4201D81B1B2943013E002EF3D111
:100980001C00631E9C410C4301007F310029CEDD19
:10099000630704D00F232340042B00D00434230129
:1009A00003D501002C4B80311C40FE290DDD0123B5
:1009B000019AFF2113400024A4E78023DB031C439A
:1009C0006402640A3300FF219CE70123019AA40119
:1009D000640AC9B2134095E71B1B1A260121C2E71E
:1009E000009B8B469A4600244CE76302E5D5002520
:1009F0008024E4032C436402640A009BFF2181E706
:100A00000195C1E723002020CB40411A8C40611E94
:100A10008C411C43630704D00F232340042B00D0D8
:100A20000434630105D50123019A012113400024F8
:100A300068E70123019AA401640A1340002161E7D9
:100A40008023DB031C436402640A5346FF2159E7F9
:100A5000707F0008B07F0008FFFFFFF7F8B557462A
:100A60004E464546DE46E0B54702460088467F0AC8
:100A7000360EC40F002E47D0FF2E24D0FB00802757
:100A8000FF041F43002399469A467F3E43465D027A
:100A90005800DB0F6D0A000E984643D0FF283BD06C
:100AA000EB0080250022ED041D437F383618731CAF
:100AB00041469B464B46614013430F2B64D8754813
:100AC0009B00C3589F46002F42D108239946063BFE
:100AD000FF269A46DAE74146022A28D0032A00D1A7
:100AE000CEE0012A00D0ACE0114000200022CCB2C0
:100AF0004002D205400AE407104320433CBC904624
:100B00009946A246AB46F8BD002F15D1042399465D
:100B1000033B00269A46B9E7FF200222002DC5D0EC
:100B20000322C3E7002D19D100200122BEE70124D2
:100B3000FF220C400020DBE7380002F01FF9762688
:100B4000431F9F4000237642361A99469A469DE7F6
:100B50000C239946093BFF269A4697E7280002F0A6
:100B60000DF9431F9D4076235B42181A00229DE732
:100B700080200024C003FF22BAE73D005246ABE7C5
:100B80003D0021005246A7E73B0C9C462A04120C6C
:100B90002B0C1400604665463F043F0C7C434243E7
:100BA0005D437B43270C9B18FF18BA4203D980236F
:100BB0005B029C46654424043A04240C12199301F8
:100BC0005C1EA3413F0C920E7D191A43AD011543E3
:100BD0002B0104D501235E466A081D4015433200EF
:100BE0007F32002A25DD6B0704D00F232B40042B16
:100BF00000D004352B0103D53200274B80321D4035
:100C0000FE2A94DC0124A801400AD2B20C406FE70E
:100C10008020C003074207D0054205D12843400287
:100C2000400A4446FF2263E738434002400AFF225D
:100C30005EE70124A31A1B2B05DD0C4000220020D7
:100C400056E75E46CBE72A002020DA40C31A9D40D3
:100C50002B005D1EAB4113435A0704D00F221A40EC
:100C6000042A00D004335A0104D5012401220C4087
:100C700000203DE701249B01580A0C40002237E781
:100C800080200124C00328434002400A0C40FF2278
:100C90002EE7C046F07F0008FFFFFFF7F0B54F4694
:100CA000D64646464400C0B5C20F47024802400A35
:100CB000844666467B0A4800C90F9A46240E1500F2
:100CC000DB00000E8946F600FF2800D18FE00121ED
:100CD0004F464F403900914266D0221A002A00DC6C
:100CE0009DE000283DD1002E00D18BE0511E00294F
:100CF00000D0B5E001249B1B5A0144D59B019F09FC
:100D0000380002F03BF805388740844200DD96E069
:100D1000041B3A0020200134E240041BA7403B00A2
:100D20005F1EBB41002413435A0704D00F221A4010
:100D3000042A00D004335A0127D50134FF2C00D1F6
:100D400079E001229B015B0AE4B22A405B02E405E0
:100D5000580AD207204310431CBC90469946A2462D
:100D6000F0BDFF2CE0D08021C9040E431B2A7BDCA0
:100D700031002020D140821A9640721E96410E43C7
:100D80009B1B5A01BAD45A07D0D10122DF082A404E
:100D9000FF2C33D1002F00D1A8E08023DB033B439D
:100DA0005B025B0AFF24D1E7211A00294CDD0028F1
:100DB0002AD0FF2CB8D08020C00406431B2900DDB8
:100DC000AFE030002027C840791A8E40711E8E4156
:100DD00006439B195901D6D50134FF2C00D185E07B
:100DE00001227A491A405B080B4013439CE7002E0E
:100DF00000D070E76BE73B1EC5D100227B025B0A87
:100E0000E4B2A3E714008FE7002E4DD0481E00285F
:100E100057D19B1901245A01B5D50224E0E7002AD5
:100E200025D1621CD2B2012A72DD9F1B7A0135D511
:100E3000F71A0D0064E7012200232A4086E73B00F1
:100E4000634A241A13406FE700296CD1611CC8B2B1
:100E500001284EDDFF2949D09B195B080C0063E790
:100E6000FF2A41D00A0081E701269B1B89E7002C5D
:100E70001CD0FF2821D08024E404524223431B2AA3
:100E800000DD96E01C002025D440AA1A93405A1E8B
:100E900093412343F31A04000D002DE7002F00D0E7
:100EA0002EE700220024A9E70C003DE7002B58D0D4
:100EB000D243002AEED0FF28E1D13300FF240D00F9
:100EC00032E7FF2910D0010078E7002B6ED0FF2415
:100ED000002E00D128E780225146D203114203D0D0
:100EE0006146114200D13300FF241DE7FF24002397
:100EF0002CE7002CE9D1002B63D0002E00D113E7A2
:100F00009B195A0100D43EE7314A0C0013400BE70D
:100F1000002C1ED1002B2FD1002E4FD033000D00FE
:100F200002E7012655E7002C1FD1002B43D0C9430F
:100F300000290BD0FF2839D01B2944DC1C002027B6
:100F4000CC40791A8B40591E8B4123439B190400D6
:100F500040E7002B1AD1002E24D180270022FF0366
:100F60001BE7330004000D00DEE6FF281ED08024BE
:100F7000E40449422343DFE7002E00D1D4E69F1B5F
:100F80007A0100D437E7F31A0D00CDE6FF24002ED6
:100F900000D1C9E680225046D2031042A4D0604658
:100FA0001042A1D133000D00FF24BDE63300FF2421
:100FB000BAE601236EE733000400B5E600270022FD
:100FC0001CE73300B0E60123C0E7C046FFFFFF7D0A
:100FD000FFFFFFFB70B5002830D0C317C4185C407A
:100FE000C50F200001F0CAFE9E231B1A962B0DDCB4
:100FF0009622D21A94402A006402640ADBB2640288
:10100000DB05600AD2071843104370BD992B19DC29
:101010009922D21A002A29DD94402200144C14404F
:10102000510704D00F210A40042A00D00434620181
:1010300013D4A401640ADBB22A00E0E700220023F3
:101040000024DCE705222100121AD140B922D21A6D
:101050009440621E94410C43DAE7054B2A001C4081
:101060009F23A4011B1A640ADBB2C8E72200D5E75C
:10107000FFFFFFFBF8B54546DE4657464E460C03DC
:10108000E0B54E00C90F88460D00610A440F0C43BD
:10109000C70019035800DB0F9B464B0A510F0B4347
:1010A000760D400D1900D200D84500D1AEE0351ABA
:1010B000002D00DCF6E000280FD1134300D1DBE067
:1010C0006B1E002B00D037E1BA1A9742BF41641A59
:1010D0007F42E41B0126170024E0C64B9E424DD000
:1010E00080231B041943382D00DD07E11F2D00DD8F
:1010F00038E12020431B9A460B0050468340994616
:1011000013004846EB401843030050468240501EEF
:101110008241E9401A43BA1A611A9742A441170062
:1011200064420C1B230262D56402650A002D00D1C3
:10113000DFE0280001F022FE0300083B1F2B00DD4A
:10114000D2E020223C00D21A9D40D4409F4025434B
:101150009E4200DDC4E09E1B731C1F2B00DDF1E0EE
:10116000202238002900D21AD840914097402C0004
:101170000143781E8741DC4000260F437B0709D0DE
:101180000F233B40042B05D03B1DBB42BF417F4298
:10119000E4191F0023022CD5964B01369E4200D144
:1011A0009AE04546944BFF081C40600776056402B0
:1011B0000743240B760D00212403230B0C0D8F4ACB
:1011C00024051C431440330523435B00ED075B08F3
:1011D0002B43380019003CBC90469946A246AB46CA
:1011E000F8BD6446044300D111E2040067467B0762
:1011F000C6D145466007FF080743E4087D4B9E4281
:1012000030D024037605240B760DD4E7331A9A46A2
:10121000002B78DD002831D076488642AED0802081
:10122000000401435346382B00DCE9E00A43511E19
:101230008A410021D219BA42BF4109197C421700E4
:101240000C192302D3D56B4B01369E4200D13AE1F3
:101250000120694B1C407B0807401F43E007074300
:1012600064088BE723003B4300D1CBE180221203CB
:1012700014432403240B9EE72E007FE7080010434D
:1012800000D1B4E0581E002800D0DEE0BA18BA42FF
:101290009B4164185B42E418170001262302A6D57F
:1012A0000226D5E7002D6ED1701C4005400D0128A7
:1012B00000DCF9E0B81A844687428041E51A4042D2
:1012C0002D1A280200D489E0D71BBA4292411C1B78
:1012D0005242A51AD84629E74546002400276AE766
:1012E000454CF61A2C4049E73D0028388540002738
:1012F0002EE7380001F042FD20301DE70A43511E61
:101300008A41002107E7002B00D0F3E0701C430561
:101310005B0D012B00DCADE0364B984200D1D1E0F3
:10132000BA18BA42BF4164187F42E419E70752086D
:1013300017436408060021E72E48854200D193E058
:101340001D00D0E629001F3EF140202B00D18DE08A
:101350004022D31A9D402F437D1EAF4100240F43EE
:10136000002644E72B000800203BD8400300202D36
:1013700000D17DE04020451BA9400A43511E8A410F
:1013800000211A43C7E6002E50D01A4EB04257D063
:1013900080266B429946360434434B46382B00DD99
:1013A000D6E01F2B00DD35E12026F51A2600AE40E1
:1013B000B2463E00DE40AC46350056462E436546FA
:1013C000AF407D1EAF41DC403743D71BBA4292414C
:1013D0000C1B5242A41A0600D846A3E66446674690
:1013E0002C4300D0A2E600250026002706E71E00B9
:1013F000C4E6C046FF070000FFFF7FFFFFFF0F802E
:101400001F2B63DC2020C31A080098409C468346AB
:1014100053461000D84003005846184363469A408C
:10142000531E9A4153460243D94003E726003E43E8
:1014300006D0EB439946002BC7D0944EB042ACD1B6
:101440000C0017000600D84698E6904B9A450BD042
:101450008246E7E6002800D09EE01800104300D145
:10146000E9E01C001700D846884E87E6002572E7A1
:10147000002182E723003B43002E00D0ABE0002B8D
:1014800000D1E7E00B00134300D177E6BA18BA4267
:10149000BF4164187F42E419230200D4F2E07C4B80
:1014A00017001C40060069E620003843002ED1D109
:1014B00000285BD11C00144300D1A8E01C001700D9
:1014C000D8465BE606000024002797E650460B004E
:1014D0002038C34099465346202B00D195E0402345
:1014E00050461B1A99400A43511E8A414B4600211F
:1014F0001A439FE6002E30D126003E4367D0DB43DF
:101500009A46002B1CD0614EB04260D05346382B17
:1015100000DD96E01F2B00DD9FE02026F31A260059
:101520009E409C46B34653463E00DE4033005E4636
:101530001E4363469F407B1E9F415346DC4037431A
:10154000BF189742924164185242A418060078E6E8
:1015500027437C1EA741002437E74C4EB04236D0CB
:1015600080265B4236049A463443CFE71800104386
:1015700000D103E6B81A84466745AD41E01A6D42D2
:10158000401B050200D42CE6D71BBA4292411C1B1B
:101590005242A41AD846F1E51800104300D163E77F
:1015A000F808670707438020E4080003044208D0D6
:1015B000DD08054205D1D208590711430F002C0060
:1015C000D8467B0FE4001C43FF00304ED6E50C00EC
:1015D00017000600D2E5002B38D00B00134300D1D2
:1015E00042E7F808670707438020E4080003044245
:1015F000E7D0CB080342E4D1D208490711430F00DA
:101600001C00DEE700270024D5E500216BE700255C
:101610000027F3E54E462500203EF5404B462E00C0
:10162000202B2DD04025ED1AAC4027437C1EA7412E
:1016300000243743C9E6802400252403134E0027E5
:10164000DCE527437C1EA741002479E70C00170046
:101650000E4E93E50C00170090E556462300203E01
:10166000F34099465346202B0ED0402356469B1BF1
:101670009C4027437C1EA7414B4600241F435FE745
:101680000024D2E71700B2E50024F2E7FF070000CC
:10169000FFFF7FFFF0B557464546DE464E46E0B5B4
:1016A0004C000E0387B0834692461D008046360BE1
:1016B000640DCF0F002C4FD06F4B9C4235D0802350
:1016C000420F1B04F600134333439946C300984668
:1016D0006A4B00269C460023644403932B031B0B98
:1016E0009B466B00ED0F50465B0D01955ED0624A44
:1016F000934253D05A46D1008022400F1204024335
:101700000A4393465246D1005C4A94460022634401
:101710003800684084460290E41A16430F2E00D920
:10172000B4E0574BB6009B599F460300334399469C
:101730006CD100239846023308260393CEE7CB46AC
:101740004146039A0197022A65D1019B4A4C9C4667
:101750000023002298466BE00300334399464ED0A5
:10176000002E00D1BCE1300001F008FB03000B3B70
:101770001C2B00DDACE11D22D31A5A460100DA40D1
:1017800008398E401300334399465B468B40984698
:1017900000233C4C0026241A03939FE751465A46E7
:1017A000114329D1002293460232B1E75946014341
:1017B0001ED05B46002B00D19EE1584601F0DEFAB8
:1017C00003000B3B1C2B00DD8FE102005946083A59
:1017D00091408B461D21CB1A5146D9400B005946EA
:1017E0000B4351469B469140264B00221B1A8FE724
:1017F000002301229B468BE75146032288E7002302
:101800009846013304260024039367E70323B14677
:1018100003930C2662E7032A00D15CE2019B012AB4
:1018200000D0E4E113409C460023002400229846A7
:1018300000211203130B0A0D12051A432305124C43
:1018400040462240134362465B00D2075B081343C5
:10185000190007B03CBC90469946A246AB46F0BD85
:10186000002380229C4612039846034CE0E70023A5
:10187000014C00229846DBE7FF07000001FCFFFF58
:10188000308000080DFCFFFFFFFF0F80D94500D915
:1018900039E100D134E1002346464D469A46013CE9
:1018A0005B460A0E1B021A430B02170C0393130428
:1018B0001B0C3900280090460193FEF741FC020002
:1018C000019B83465A43280039009146FEF7BEFC2F
:1018D000350C09040D43A9450DD95B464544013B30
:1018E000A84500D93AE1A94500D837E102235B4277
:1018F0009C464544E3444B46EB1A390018000493D8
:10190000FEF71EFC019B05004343390004989946ED
:10191000FEF79CFC330409041B0C0B43994509D9C1
:1019200043446A1E984500D91AE1994500D817E149
:10193000023D43444A469B1A5A4612042A430399DD
:101940009346100C0A0C914609045A46090C4E465F
:101950000D001204120C454305915143724370432C
:1019600052190E0CB218954203D980256D02AC466F
:101970006044150C09041204090C281852188342FB
:1019800000D2CEE000D1C8E01D1A53469E1AB245DF
:1019900092415242AB1A9A46984500D117E139005C
:1019A0001800FEF7CDFB019B05004343390050466C
:1019B0000493FEF74BFC04980B04310C1943884246
:1019C00009D941446B1E884500D907E1884200D8F7
:1019D00004E1023D4144049BCB1A180039000493F2
:1019E000FEF7AEFB019B8246434339000498019306
:1019F000FEF72CFC01980B043104090C19438842B2
:101A00000DD953464144013B884500D9E8E088425E
:101A100000D8E5E002235B429C464144E244019B3E
:101A20002D04CE1A51462943059D4F462A000B042A
:101A3000080C1B0C5A4345437B4378435B19170C36
:101A4000FB189D4203D980256D02AC4660441D0CF5
:101A500012041B04120C28189B18864200D293E033
:101A600000D18EE001231943A04BE318002B00DCCA
:101A700099E04A0700D09EE05A46D20106D55A4660
:101A80009B4B1A4080239346DB00E318994A93420C
:101A900068DD0123029A984C1A4000239446984628
:101AA0000022C5E680224B46120313420AD05B4651
:101AB000134206D11A431203120BAC4688468E4CD1
:101AC000B6E64B461A431203120BBC468A4CAFE6ED
:101AD00003005A46283B9A4000239146984657E611
:101AE000584601F04BF9203040E603005246283BAF
:101AF0009A400021934677E601F040F920305FE6F6
:101B0000884500D2C7E64B46DE075D0843465B08C2
:101B10001E434346DB079A46C2E60025924500D3A2
:101B200033E7039E5946B446E244B245AD416D42A7
:101B30004544EB180139984507D2984200D97FE017
:101B400000D1BCE01D1A8B461FE79845FAD1039DD2
:101B50005545F2D943468B461D1A16E79B46CAE601
:101B60001500E7E65A46C90852070A435B05904646
:101B70005C0D5A460123029952021940120B8C4601
:101B800056E6002B00D16FE746444A1EB04529D9DE
:101B90001100864200D065E7039A934200D061E7C6
:101BA00062E7012149420120C21A382A21DD029B45
:101BB00003409C4638E60F220A40042A00D15BE726
:101BC0000A00111D914292415242934454E7474BFF
:101BD000E318002BE5DD01225242F2E71D00FAE690
:101BE0009A461CE7B04239D86ED011003AE702930A
:101BF0003AE71F2A3CDC20239B1A0C0058469940E8
:101C000098404B1E99415B46D440D3402043084343
:101C10001A00430709D00F230340042B05D001000D
:101C2000081D88429B415B42D21813023AD501231A
:101C3000029A01241A400023944698460022F7E5B0
:101C4000022149428C46039DE344AC46E244AA4546
:101C5000AD416D424544ED182D1A96E68A1E039952
:101C60004D008D42894149424144761803958FE7E2
:101C70001F204042C31A5846D8400300202A28D0CB
:101C800040205D46821A954029434A1E91411943DE
:101C9000072300220B4009D00F2300220B4008002D
:101CA000042BBDD1010053075202120BC90819437E
:101CB000012388460299002419408C46B8E5524514
:101CC000BED88B46002560E6039D9D42C6D3110019
:101CD00062E70025D8E780225B4612031A43019B86
:101CE0001203120B9C468846034CA1E5FF0300003B
:101CF000FFFFFFFEFE070000FF070000F0B54F46A4
:101D00004646D6465C00C0B51F03DB0F9A46174B0C
:101D10000E034D0084468046360B6D0DC90F91466B
:101D20003F0B640D01209D4208D09C4201D0A5428A
:101D30000BD01CBC90469946A246F0BD6346334387
:101D4000F7D1AC42F5D13A43F3D10120BE42F0D1F4
:101D5000C845EED1514507D0002DEAD163461E4358
:101D60003000461EB041E4E70020E2E7FF07000034
:101D7000F0B54546DE4657464E46E0B51F033D0BDF
:101D80002C4F0E034C00AB465D008446360B640DB1
:101D9000C90F90466D0DDB0FBC422AD0254FBD42C6
:101DA0002DD0002C0FD13043070081467842784176
:101DB000C0B2002D17D15F463A4314D14B460020E4
:101DC000002B0AD006E0002D02D15846024301D074
:101DD000994218D04842012108433CBC904699469C
:101DE000A246AB46F0BD0028F2D00120013B1843CB
:101DF000F3E737000743D1D002204042EDE75F46CA
:101E00001743CED0F8E7AC42E4DC03DA481E0121E8
:101E10000843E2E75E45DDD806D000205E45DCD20F
:101E20000123481E1843D8E7C445D3D80020C44531
:101E3000F6D3D2E7FF070000F0B54E464546DE4632
:101E400057465C00E0B51F03DB0F99462A4B0E0393
:101E50004D00C90F8446360B6D0D8B4690463F0BE7
:101E6000640D9D4220D0244B9C4222D0002D12D1E3
:101E7000304343424341DBB2002C1FD0002B0CD037
:101E80004B460120013B034318003CBC9046994659
:101E9000A246AB46F0BD002C16D0CB4517D05B4612
:101EA000594201230B43EFE7310002230143EBD1F9
:101EB000D9E7390002231143E6D1D7E73A43DDD110
:101EC00000230028E0D0EAE73A43E6D1E7E7A5425D
:101ED000E5DC05DBBE42E2D807D00023BE42D3D208
:101EE0005946012301390B43CEE7C445D7D8002317
:101EF000C445F5D3C8E7C046FF070000F0B5574614
:101F00004546DE464E46E0B50C0398464E00230B90
:101F100087B0070092469B46760DCD0F002E6BD002
:101F20006D4B9E4235D080245B46420F2404DB007B
:101F300014431C43C3009946684BA3469C460023A8
:101F400000276644029343461C035A00DB0F5046A9
:101F5000240B520D984600D176E05F4B9A426DD02B
:101F60008023410F1B040B435C49E4008C461C4357
:101F7000C300002062444146B6186940721C0191BA
:101F8000944607430F2F00D9B0E0554ABF00D259FD
:101F900097465B460343994600D087E000239B4663
:101FA000023308270293CEE742460192022867D007
:101FB000032800D10EE2012800D062E100230024B2
:101FC0000022994601990140CDB2002112030B0D68
:101FD000120B1B051343434A240513401C436400A2
:101FE000ED0764082C434846210007B03CBC9046EE
:101FF0009946A246AB46F0BD034399464FD05B4697
:10200000002B00D189E1584600F0B8FE03000B3BDD
:102010001C2B00DD7AE11D22D31A3A0001005C4638
:10202000DA4008398C4013008F4023439B46B94661
:1020300000232D4E0027361A029384E7534623438C
:102040002AD10024022096E75346234320D0002CB7
:1020500000D157E1200000F091FE03000B3B1C2B48
:1020600000DD49E11D21CB1A51460200D9405346FB
:10207000083A944093400C431B4A121A00207AE716
:102080000125019B144C1D400023002299469CE72A
:102090000024002201206EE7534603206BE7002353
:1020A0009B4601330427002602934CE70323814615
:1020B0000C27029347E7802200230025120399464C
:1020C000054C82E75C464B4602986FE75C464B4600
:1020D000019502986AE7C046FF07000001FCFFFF78
:1020E00070800008FFFF0F800DFCFFFF4A46494645
:1020F000170C1A0C1B041B0C08041900000C41439C
:102100001500884619007D437943039589462900C7
:10211000150045434D44029545462D0CAA46029DA7
:102120005544A94506D98A46802149028946CA44B0
:1021300051460391290C0491414609042D04090CD0
:1021400088462900250C24044144240C05912100D3
:1021500041438846210079438A46684341465044BA
:102160008146080C48446F43824503D980214902C7
:1021700089464F44010C8946390049440291414641
:102180000F0404993F0C88460004C019804441465E
:10219000049159460F0C0904090C884659438A4694
:1021A00039005143894641464A435146090C8B4602
:1021B0007B43D2185A44934203D980235B029B4647
:1021C000D94451460904090C8A46414661437C437F
:1021D000130C12044B445244A1468A463C0041462B
:1021E0006C434D4351464D440F0C7D19A94503D90D
:1021F0008021490288464444049F0399B8464144DB
:102200008B468345804141428846514608042F044D
:10221000000C3F1858460299101889469042924186
:102220004F44BA46524299469346C244D144CB44A5
:102230008F42BF41C245894199459B419345924197
:102240007F4249422D0C52420F435B4213437F1998
:10225000FF185B463C19DB0D059A64021C434302E0
:1022600013435D1EAB415A46C00D03435202134354
:10227000E20156D501205A0803401343E2071343F5
:1022800064085A48604400284DDD5A0709D00F22DF
:102290001A40042A05D01A1D9A429B415B42E41859
:1022A0001300E20104D58020514AC000144060446C
:1022B000504A904200DDE3E60125DB0862071A433D
:1022C0006402019B9146220B4405640D1D407CE68F
:1022D000802259461203114208D0144206D12243EB
:1022E0001203120B45469946434C6EE65B461A4371
:1022F0001203120B404C68E603005446283B9C40F6
:102300000023B9E600F03AFD2030A6E60300283BA2
:102310009F400023BB4699468AE600F02FFD2030FF
:1023200074E6B446ADE701252A1A382A06DD019B7A
:1023300000241D4000230022994646E61F2A21DC86
:1023400020252000AD1A1E00AB40A840D6405D1EDF
:10235000AB4130431843D440430709D00F23034017
:10236000042B05D00300181D98429B415B42E418E2
:10237000230221D50125019B01241D4000230022B9
:10238000994622E61F2521006D42281AC140080007
:10239000202A1DD05F35AA1A944023435C1EA34116
:1023A000072503431D400022002D09D00F220024E1
:1023B0001A401800042AD6D1030065076402220BD4
:1023C000DB082B4301259946019B00241D40FCE5B9
:1023D0000024E2E78022012512032243019912031F
:1023E000120B0D409946044CEFE5C046FF03000078
:1023F000FFFFFFFEFE070000FF070000F0B54646A6
:10240000D6464F460C03C0B5CD0F4E00610A440FAF
:102410000C43C1005800400D84468A460F00190342
:10242000500F490A0143C648760DA846DB0FD2007B
:10243000844500D1D8E001204340AB4200D1A6E062
:102440006046351A002D00DC05E1002810D10B0094
:10245000134300D1D7E06B1E002B00D04BE1534655
:102460009F1ABA458041641A4042241A01261EE090
:10247000B34B9E4248D080231B041943382D00DD06
:1024800019E11F2D00DD4CE120230F005B1B100024
:102490009A409F40E840531E9A41E9400743174342
:1024A0005346DF1B611ABA45A44164420C1B230248
:1024B00000D4C5E06402650A002D00D1F6E02800D2
:1024C00000F05CFC0300083B1F2B00DDE9E020224C
:1024D0003C00D21A9D40D4409F4025439E4200DDDF
:1024E000DBE09E1B731C1F2B00DD0AE1202238005D
:1024F000D21A290097402C009140D8407A1E97416B
:10250000DC40002601430F437B0709D00F233B40EB
:10251000042B05D03B1DBB42BF417F42E4191F0085
:10252000230225D5864B01369E4200D1AFE0854B74
:1025300001251C4043466207FF08640276051743E5
:10254000240B760D1D4000212403230B0C0D7E4A25
:1025500024051C431440330523435B00ED075B084F
:102560002B43380019001CBC90469946A246F0BD8A
:10257000012543466207FF081743E4081D40704BDE
:102580009E4236D024037605240B760DDBE76346A6
:10259000F31A002B00DC94E06046002835D0684830
:1025A0008642B1D080273F043943382B00DCFDE060
:1025B0000A43170000217A1E97415744574580412E
:1025C000091944420C1923023AD55D4B01369E424B
:1025D00000D14BE101225B4B1C407B0817401F439D
:1025E000E207174364088FE70800104300D024E790
:1025F00021E723003B4300D1B9E1802212031443B9
:102600002403240B9FE72E007EE70800104300D12F
:10261000CAE0581E8446002800D0E7E052445245E4
:10262000804164184042241817000126230207D570
:102630000226CFE764462C4300D1B3E12C00674665
:102640007B0700D062E76307FF081F43012543466D
:10265000E4081D4093E7002D78D1751C6D056D0DC4
:10266000012D00DCF2E05046801A8245BF41651A18
:102670007F42ED1B8446280200D48CE05046171A96
:10268000BA4292410C1B5542651B984614E701253E
:10269000434600241D40002755E72A4CF61A2C40DB
:1026A00032E73D0028388540002717E7380000F062
:1026B00065FB203006E70A43170000217A1E974188
:1026C000EEE6002B00D0E5E0731C9C465B055B0D3D
:1026D000012B00DC9FE01A4B9C4500D1C5E0524421
:1026E00052458041641840422418E70752081743B6
:1026F0006408664608E71248854200D185E01D005F
:10270000BCE629001F3EF140202B00D17FE0402293
:10271000D31A9D402F437D1EAF4100240F43002656
:102720008EE72B000F00203BDF40202D71D040238F
:102730005D1BA9400A43511E8A4100211743AFE6A1
:10274000FF070000FFFF7FFFFFFF0F80002E3ED03E
:10275000B34EB44545D0802636046D423443382DFF
:1027600000DDA8E01F2D00DD1FE1202627005046D8
:10277000761BB740E84007435046B040461EB04184
:10278000EC403843171ABA4292410C1B5242A41A29
:10279000664698468BE6644667462C4300D08BE637
:1027A000002500260027EAE61E00ADE61F2B60DCB0
:1027B0002027F81A0F00844687401000D8400743AE
:1027C00060468240501E8241D9401743F5E62600FC
:1027D0005046064305D0ED43002DD3D0904EB4456E
:1027E000BDD10C001700664698468DE68C488342A2
:1027F0000BD06346D9E6002D00D096E008001043C8
:1028000000D1E2E00C0017009846854E7CE60025DA
:1028100080E700218EE7230050460343002E00D0BE
:10282000A8E0002B00D1DEE00B00134300D16BE6E3
:102830005244524580416418404224181700230234
:1028400000D4FDE6774B66461C405DE62500504609
:102850000543002ECFD1002D4FD10C00144300D1E1
:10286000A0E00C00170098464EE6664600240027BC
:1028700085E61F000800203FF8400700202B00D10C
:102880008EE04020C31A99400A43511E8A4100211C
:10289000174392E6002E14D126005046064362D01C
:1028A000DB43002B5CD18718974292416418524257
:1028B000A418664687E650462043441EA0410024E3
:1028C00060E7574EB4454ED0802636045B42344311
:1028D000382B00DD7FE01F2B00DD8BE0202627005A
:1028E0005046F61AB740D84007435046B040461EFF
:1028F000B0410743DC40BF18D6E70D00154300D1B7
:1029000002E65046801A8245BF41651A7F42ED1BA0
:102910008446280200D48DE65046171ABA429241E6
:102920000C1B5242A41A9846EEE50D00154300D147
:102930006BE750466707C00807438020E4080003A0
:10294000044207D0CD08054204D12C009846D70890
:1029500049070F437B0FE4001C43FF00304ED3E5D3
:102960002F4EB445B4D10C0017006646CCE50027C5
:102970000024E8E5002B39D00B00134300D144E7D5
:10298000C008670707438020E40800030442E1D041
:10299000CB080342DED1D70849070F431C00D9E713
:1029A000002171E700250027E9E52E002700203EE1
:1029B000F740202D2FD04026751BAC4050462043B9
:1029C000441EA04100243843DCE680240025240373
:1029D000134E0027D3E5504620430700781E874159
:1029E0000024BF1860E70C0017008DE50C001700ED
:1029F0000B4E89E51E002700203EF740202B0CD00F
:102A00004026F31A9C4050462043441EA0410743F1
:102A10000024BF1848E70024D0E70024F3E7C046AD
:102A2000FF070000FFFF7FFF70B50E4E0D031C0374
:102A300049005B002D0B490D240B5B0DB14204D006
:102A4000084900208B4208D070BD05430120002DAD
:102A5000FAD1044900208B42F6D114432000441ED1
:102A6000A041F1E7FF07000030B5134D0A034B000A
:102A7000120B5B0DC90F0024AB4210DD0F4CA342BB
:102A80000FDC80240E4D64032243ED1A1F2D0BDD55
:102A90000C48C31ADA405442002900D11400200027
:102AA00030BD094BCC18FAE7084CE840A446634413
:102AB0009A400243EFE7C046FE0300001D040000F9
:102AC0003304000013040000FFFFFF7FEDFBFFFF56
:102AD00070B5002830D0C317C4185C40C50F200063
:102AE00000F04CF9174B184A1B1AD21A1F2A18DD8E
:102AF000164AD21A9440002224035B05240B5B0D76
:102B00000021100024030A0D240B12052243104C4F
:102B10001B05224013435B00ED075B082B431900A4
:102B200070BD210091400A000B21081AC4405B05CA
:102B30002403240B5B0DE3E700250023002400227F
:102B4000DEE7C0461E04000033040000130400004A
:102B5000FFFF0F8010B5041E28D000F00FF9154BB1
:102B6000154A1B1AD21A1F2A15DD144AD21A94408C
:102B7000002224035B05240B5B0D002110002403BD
:102B80000A0D240B120522430D4C1B052240134352
:102B90005B00590810BD210091400A000B21081A62
:102BA000C4405B052403240B5B0DE6E700230024EF
:102BB0000022E2E71E0400003304000013040000BA
:102BC000FFFF0F804100090E4B1C70B5DBB24602BF
:102BD000750AC40F012B14DDE0239B006D07360B33
:102BE000CB1800210A0D280012051C4D32435B054D
:102BF0002A405B0813435B00E4075B08234319008A
:102C000070BD002914D1002D1ED0280000F0B6F8A8
:102C10000A281CDC0B232A001B1ADA400300153398
:102C20009D400F4B12031B1A5B05160B5B0DD8E77B
:102C3000002D06D0320B802636036D071643094B54
:102C4000CFE7084B0026CCE700230026C9E70300A6
:102C50002A000B3B9A400025E3E7C046FFFF0F80A8
:102C600089030000FF070000F0B54C00640D0B0362
:102C7000621C450F5B0A52052B43C90FC500520D5C
:102C8000012A28DD3A4AA618FE2E1BDC002E3EDD66
:102C900080010200501E82416D0F2A43DB00134366
:102CA0005A0704D00F221A40042A00D0043380228D
:102CB000D2041A405AD00136FF2E03D09B015B0A82
:102CC000F4B201E0FF2400235802E405400AC907DA
:102CD00020430843F0BD002C07D01D43F2D08020D4
:102CE000DB0080040343FF26DAE72B4303D00523F0
:102CF000DB08FF2C03D05B025B0AE4B2E4E7002BA5
:102D000032D08020C00303435B025B0ADCE7320061
:102D1000173214DB80221E2712041343BF1B1F2F00
:102D20000FDC144A944664442A00A5402E00A340B8
:102D3000751EAE41FA40334313430026B0E700242A
:102D4000D5E702225242961B1A00F240202F09D0EA
:102D5000094884466444A3402B435D1EAB410026D2
:102D600013439DE70023F7E70023ADE73400BFE7F7
:102D700080FCFFFF82FCFFFFA2FCFFFF1C21012360
:102D80001B04984201D3000C10391B0A984201D34E
:102D9000000A08391B09984201D30009043902A22C
:102DA000105C40187047C046040302020101010193
:102DB000000000000000000010B5040001F064FAFB
:102DC000FA218900FDF7BCF900F070F8012000221B
:102DD0002100404200F030F8002010BD1023064AC8
:102DE00010B5116800200B431360FFF7E5FF02F0F8
:102DF00017FF002010BDC04600200240024A1368A1
:102E0000013313607047C046F0020020014B186880
:102E10007047C046F002002037B50190FFF7F6FF7B
:102E2000019C0500631C5A1E9341E418FFF7EEFF56
:102E3000401BA042FAD337BD70B58901002814DACF
:102E40000F23C0B20340083B114A9B089B009B180C
:102E5000032210409040FC32150011408540814013
:102E6000DC69AC432143D96170BD03258308284048
:102E7000A840FC352E00074A9B009B18C0228640C4
:102E80002940814092009C58B44321439950EBE77C
:102E900000ED00E000E100E01F2318401E3B8340EE
:102EA000014A13607047C04600E100E0094A431E32
:102EB000012093420DD8C021074A08485360036A95
:102EC00009061B021B0A0B430362002007239060C4
:102ED00013607047FFFFFF0010E000E000ED00E02E
:102EE000054B1A68042802D110431860704704216A
:102EF0008A431A60FAE7C04610E000E0704710B558
:102F0000FFF7FCFF10BD70B5841CE37F022B04D0DB
:102F100004238363033B180070BD0E210368056C16
:102F20001A688A431A6001221968914319601100D6
:102F3000A940C36B5960E27700248318426BDC77A9
:102F40001300A242E7D090472300E4E7F0B50B68F6
:102F500087B0029300230191029ADA4001D107B0B1
:102F6000F0BD01229A4003920399029A0A4000920E
:102F700000D18CE0019A1021526816008E43022E77
:102F80000ED107251D40AD000139A940DC08A40081
:102F90000419276A8F4301990969A9400F432762E1
:102FA00003245F00BC40E4430568013E2540AC4675
:102FB00003251540BD4061460D430560012E0FD825
:102FC00001998668CD682640BD40354385604668D6
:102FD000039915098E4301210D409D4035434560FD
:102FE000C56801992C408D688021BD4049052C435E
:102FF000C4600A424BD00121264C0326A5691E401D
:103000000D43A561A4699D080C400594059C0F24FF
:103010002149AD00B6006D18B4409021AF68C905D4
:10302000A743002488420CD01C490134884208D0B0
:103030001B490134884204D01A490334884200D124
:10304000023CB44000993C430E00AC60164CCD43AA
:1030500027683E43D10301D43E002E4026606768B6
:10306000009E3E43910301D43E002E406660A76857
:10307000009E3E43D10201D43E002E40A660E66889
:10308000009F3743920201D42E403700E76001339E
:1030900062E7C04600100240000001400004004802
:1030A00000080048000C004800040140002A01D03C
:1030B000816170478162FCE7436959404161704713
:1030C00003689A69920701D500229A6201229969E0
:1030D000114202D199690A439A61704730B5046878
:1030E0000648656889052840039D890D2B431943CF
:1030F00012040A430243626030BDC046009800FCDF
:1031000010B50023CA0708D5030041331A782823D5
:103110001A401A33282A00D0B0338A0708D5020093
:103120002824413212782240A24217D1442213436C
:103130004A0701D5B822134311220A40112A01D1AE
:103140007F32134312221140914201D14E32134378
:1031500001680A6800209A430A6010BDF422E6E77D
:10316000F8B504000E0017001D0022689369334073
:103170009B1B59424B41BB4201D000200EE06B1C0F
:10318000F4D0002D0BD12300202241331A702200ED
:10319000002303204232403413702370F8BDFFF740
:1031A00035FE069BC01A8542DFD2ECE7F8B503680E
:1031B0000400986910230E001700184020250028ED
:1031C00015D1F8BD721C13D0002E0BD12300202284
:1031D00041331A702200002342324034137003201E
:1031E0002370EEE7FFF712FEC01B8642EED3236882
:1031F0009A692A42E6D010222000DA61DD61FFF7E9
:103200005FFF22680849536801200B405360042384
:1032100063642300220041331D7000234232403496
:1032200013702370CDE7C04600E800FEF8B5040037
:103230000D001600022723689B693B4201D0002045
:1032400018E0320029002000FFF7B0FF002818D155
:103250006B1CF0D0002D0ED12022636C0320134391
:103260006364230041331A70220000234232403449
:1032700013702370F8BDFFF7C9FD801B8542DAD2B9
:10328000EAE70120F6E70000F8B504000D0017009A
:103290002026042223689B69134201D0002025E0E8
:1032A0003A0029002000FFF781FF00280FD1236892
:1032B0009A6932420DD0DE615A6810490A405A605C
:1032C00023006064413340341E7058702070012028
:1032D0000CE0002D0BD12022636C032013436364A8
:1032E000230041331A70002340342370F8BDFFF7E8
:1032F0008DFDC01B8542CCD2EDE7C04600E800FE44
:10330000F8B504000D001600202723689B693B4296
:1033100001D0002016E0320029002000FFF746FF10
:10332000002816D1002D0ED12022636C03201343F8
:103330006364230041331A70220000234232403478
:1033400013702370F8BDFFF761FD801B8542DCD24E
:10335000EAE70120F6E7000070B504000120002C28
:103360003FD0250041352B78DBB2002B05D1220060
:1033700040321370200001F09DFF242301212B70A7
:103380002368E0681A68A6688A431A6061681A4A66
:103390000A401A619968194A11409960012821D19F
:1033A00080210902314399605868154901435960E9
:1033B000D96800200A40DA60616922690A43A1697C
:1033C00009020A43DA60216AE2690A431A600122AB
:1033D00019680A431A60202360642B70206342340A
:1033E000207070BD84210902314399600228DBD12D
:1033F000802109015960D7E7FFFFFFF0FF7FFFFF42
:1034000000800002F0B5050087B003910492059397
:1034100041352B7804000220202B57D12300403364
:103420001A78012A52D001261E70FFF7EFFC802186
:10343000070000901923320009022000FFF790FED8
:10344000002842D121232B70113BAD192B70049B16
:10345000606463626B469B8A606363858023628DD0
:103460009B01FF2A21D9FF222285009380235B0440
:1034700003992000FFF732FEFF26638D3A000C9976
:103480002000002B19D1FFF73BFF002819D1202184
:103490002368274ED9615A6832405A60230040346D
:1034A000413319702870207010E0628D92B222852D
:1034B00000938023D2B29B04DAE7FFF7B7FE00281F
:1034C00006D0636C0120042B00D0032007B0F0BDB0
:1034D000636A2268591C61621B789362638D228D36
:1034E000013B013A9BB292B263852285002AC4D186
:1034F000638D002BC1D000970C9B80212000FFF72B
:103500002FFE0028E1D1638DFF2B09D98023FF22F4
:1035100026855B04009003992000FFF7DFFDACE7F0
:103520008023628D9B0492B22285D2B20090F2E792
:1035300000E800FEF0B5050087B003910492059302
:1035400041352B7804000220202B57D12300403333
:103550001A78012A52D001261E70FFF757FC8021ED
:10356000070000901923320009022000FFF7F8FD40
:10357000002842D122232B70123BAD192B70049BE3
:10358000606463626B469B8A606363859023628D8F
:103590009B01FF2A21D9FF222285009380235B040F
:1035A00003992000FFF79AFDFF26638D3A000C99DE
:1035B0002000002B19D1FFF7A3FE002819D12021EC
:1035C0002368274ED9615A6832405A60230040343C
:1035D000413319702870207010E0628D92B22285FC
:1035E00000938023D2B29B04DAE7FFF74DFE002858
:1035F00006D0636C0120042B00D0032007B0F0BD7F
:10360000636A5A1C62622268526A1A70228D638D44
:10361000013A013B92B29BB222856385002AC4D154
:10362000638D002BC1D000970C9B80212000FFF7F9
:1036300097FD0028E1D1638DFF2B09D98023FF225C
:1036400026855B04009003992000FFF747FDACE757
:103650008023628D9B0492B22285D2B20090F2E761
:1036600000E800FEF0B589B005911D0001000023BF
:103670000492079341310B780400DBB20220202B27
:1036800055D1226896698022120232404FD126001D
:1036900040363778012F4AD0013830701E00233071
:1036A00008706264059BE1689B0522689B0D0129F7
:1036B0001AD136490B435360FFF7A8FB039027004C
:1036C000236841379A69324218D010279A693A40E4
:1036D0002FD1039B2021009320002B00FFF740FDFA
:1036E00000281CD0032022E0A0218901E2E7FFF797
:1036F0008DFB039BC01A8542E1D20AE010219A6932
:103700000A42E2D13A78A02ADFD06A1CDAD0002D32
:10371000EDD120233B70002340342370E2E72023C7
:103720002268D3612200403441321370207009B006
:10373000F0BD039B0022009331002B002000FFF717
:103740000FFD021ECED12368DF61DE610799481CA0
:103750000790049881420FD180215868C901014324
:103760005960039B3100009320002B00FFF7F8FC09
:103770000028B7D12368DE61079B049A9A4200D9DA
:1037800090E72300202241331A70C4E70020000292
:10379000036810B599691A68436B002B00D09847ED
:1037A00010BD70477047030070B5002542331D708F
:1037B000013B1A780400292A0DD1013A1A702123FD
:1037C00001210363FFF79CFC230040331D702000A0
:1037D000FFF7E7FF70BD1A782A2AFBD1023A1A7068
:1037E000222302210363FFF78BFC230040331D706B
:1037F0002000FFF7D7FFEDE770477047174B10B574
:10380000C3620023020003630400202041321070D1
:10381000537004226363114211D0636A591C6162C0
:103820002168496A1970238D002B08D0013B23853C
:10383000638D013B9BB26385636C1A43626407210D
:103840002000FFF75DFC102223682000DA612300CE
:10385000002240331A70FFF7D0FF10BD0000FFFFB9
:10386000704770470200002370B5050042321370A4
:103870002F4A4135C2624385436C040019434164B9
:103880002B78282B05D02B78292B02D02B782A2BAC
:1038900022D103212000FFF733FC28232B700023C3
:1038A0002363244B8022210063632368D2011E68B6
:1038B000403116401A681AD01F4802401A60A06BA7
:1038C0001E4B436300230B70FFF71DFB002802D043
:1038D000A06B436B984770BD0721FFF711FC2B7855
:1038E000602B01D020232B7000232363DAE7802094
:1038F000000202400DD01A68114802401A60E06BC5
:103900000E4B43630E70FFF7FEFA0028E3D0E06B26
:10391000DFE72B78602B06D1403B2B7020000A702C
:10392000FFF79FFFD7E70A702000FFF799FFD2E764
:103930000000FFFF3D3A0008FFBFFFFF673C0008A3
:10394000FF7FFFFFF8B504002022802725000368D1
:103950000E00DA61183ADA610721FFF7D1FB23681C
:103960003F025A6833493A435A605A6820000A4075
:103970005A60FFF7A5FB216841350B685B0402D450
:103980000B683B4207D02B78212B34D1A36B1B68EB
:103990005B689BB26385638D002B03D00423626C4C
:1039A000134363640422164210D0636A496A581CA8
:1039B00060621970238D002B08D0013B2385638D35
:1039C000013B9BB26385636C1A436264220000234F
:1039D0004232236313706363636C002B0DD0616C00
:1039E0002000FFF73FFF2B78282B03D13100200068
:1039F000FFF704FFF8BDE36BC9E72200E06A0E4958
:103A00004032884207D0E1622021200029701370E3
:103A1000FFF7F3FEEEE720212878297013702228A3
:103A200003D12000FFF7BEFEE4E72000FFF7B9FE58
:103A3000E0E7C04600E800FE0000FFFF0300F0B52D
:103A4000403317001A78040085B00D000220012AC7
:103A500026D001221A700F32114240D017423ED0B8
:103A6000638D002B34D18023E26A9B049A4202D0FA
:103A7000E26A9A4216D1230041331B78282B11D1D8
:103A800029002000FFF7BAFE20231D4205D01F4267
:103A900003D029002000FFF755FF0020403420709C
:103AA00005B0F0BDE16A584A236891420DD022006A
:103AB00041321278292A08D1193ADA612000FFF739
:103AC000FFFA2000FFF76FFEDEE71022DA61DBE786
:103AD0002368DA610423626C13436364D4E704222D
:103AE000154219D0174217D0638D002B0CD0636A92
:103AF0005A1C62622268526A1A70238D013B238528
:103B0000638D013B9BB26385638D002BBCD1E26A60
:103B10003D4B9A42D5D1B7E70820054250D0074225
:103B20004ED022002821413212780A402168282AEA
:103B300042D18E698B69D6321B0C1A4001928A6879
:103B4000CB68F6030393230040330093E368F60F3A
:103B5000022B28D19205930D019A0293DB095A405A
:103B600013000622134013D1A26C94460122944400
:103B70006246A264A26C022A00D085E7009AA36480
:103B8000C8611370029A31002000FFF735FE7BE711
:103B900004212000FFF7B4FA0023009A1370039A5F
:103BA000FE331A40EFE704212000FFF7A9FA0023B3
:103BB000009A1370019AE6E70022C8611A7063E761
:103BC00002231D4200D15FE71F4200D15CE7638DF5
:103BD000002B0DD0636A2268591C61621B789362C6
:103BE000638D013B9BB26385238D013B23854BE7AE
:103BF0008023E26A5B049A4200D162E7E36A002B09
:103C000000D15EE740E7C0460000FFFF70B58025A9
:103C100003686D0099691A68294206D0140604D514
:103C20000124466C34434464DD618025ED00294263
:103C300006D0140604D50824466C34434464DD6180
:103C40008024A400214206D0120604D50222416C31
:103C50000A434264DC610B23426C1A4202D0416C7D
:103C6000FFF700FE70BD8023406A1B02026810B59A
:103C700051680B4353600023826B5363C26B5363E1
:103C8000030041331A78602A04D1403A1A70FFF7D2
:103C9000E8FD10BDFFF7E4FDFBE7406C7047000056
:103CA000F0B50400413422780300D2B20220202A69
:103CB00018D11D0040352E78012E13D01B682230FC
:103CC00020701E68233886431E601E68064F3E40E3
:103CD0001E601E683143196019680843186000208F
:103CE00022702870F0BDC046FFEFFFFFF0B5050061
:103CF00041352A780300D2B20220202A17D11C00B5
:103D000040342678012E12D01B68223028701E689D
:103D1000233886431E601E68054F09023E4031432A
:103D2000196019680843186000202A702070F0BDDF
:103D3000FFF0FFFFF0B5036885B00500DB072FD467
:103D40002B689B0700D581E02B681B0700D5BCE0E2
:103D50002B685B0700D5DFE02B68DB061AD56A69A4
:103D6000B54C0423012A00D04BE1616B02260B43C2
:103D70006363636B1A436263FFF748F80700636B82
:103D8000334200D136E1F821626BAB698A43DB0034
:103D900013436363296A002900D059E1002013E02E
:103DA0000C21A54C62680A40042A06D063680B40C7
:103DB000082B0BD16368DB0308D523689B03BFD5B1
:103DC0006B68002BBCD1012005B0F0BD6B68012BE6
:103DD00013D1802322685B0213432360FFF716F898
:103DE00080260700B60223683342A9D1FFF70EF8F8
:103DF000C01B6428F7D90320E6E7002B16D12368FF
:103E00008E4A80261340236023688D4AB6021340F1
:103E10002360FEF7FBFF07002368334200D18FE7E2
:103E2000FEF7F4FFC01B6428F6D9E4E7052B05D1A3
:103E300080232268DB0213432360CAE723687F4A9A
:103E40001340236023687E4A1340C6E70C227A4C55
:103E50006368134206D063681340082B10D163686F
:103E6000DB030DD423689B0702D5EB68012BAAD195
:103E7000F82122682B698A43DB001343236063E740
:103E8000EA680123002A0FD0226802261343236028
:103E9000FEF7BCFF070023683342E9D1FEF7B6FF07
:103EA000C01B0228F7D9A6E7226802269A4322609F
:103EB000FEF7ACFF07002368334200D144E7FEF76A
:103EC000A5FFC01B0228F6D995E7EA6901235A4CE1
:103ED000002A10D0626A022613436362FEF796FF3F
:103EE0000700636A334200D032E7FEF78FFFC01B42
:103EF0000228F6D97FE7626A02269A436262FEF7D9
:103F000085FF0700636A334200D121E7FEF77EFF99
:103F1000C01B0228F6D96EE780220021464C5205CC
:103F2000E3690091134208D1E3691343E361E36954
:103F300013400393039B012300938027414E7F008E
:103F400033683B4206D0AB68012B13D1226A13437E
:103F5000236230E033683B433360FEF757FF019044
:103F600033683B42EFD1FEF751FF019BC01A642832
:103F7000F6D940E70122002B14D1236A022793438C
:103F80002362236A033293432362FEF73FFF060056
:103F9000236A3B4225D0FEF739FF2B4B801B98420A
:103FA000F6D928E7052B0BD1216A013B0B4323628D
:103FB000236A1A432262FEF729FF022706000DE05A
:103FC000236A934304222362236A9343C0E7FEF7E4
:103FD0001DFF1D4B801B984200D90CE7236A3B4212
:103FE000F5D0009B012B00D0B6E6E369174A1340D9
:103FF000E361B1E6FEF70AFFC01B022800D8BEE667
:10400000F9E6053203D1626B9A436263BBE6626BE9
:104010000226134301226363636B93436363FEF7DA
:10402000F5FE0700636B334200D1B3E6FEF7EEFE08
:10403000C01B0228F6D9DEE600100240FFFFFEFF9B
:10404000FFFFFBFF0070004088130000FFFFFFEF41
:104050000C22264C012063681340082B00D1B3E6E4
:104060002368234A1340236002292FD1FEF7CEFE96
:1040700080260700B6042368334221D10F22E36A69
:104080009343EA6A1343E362696AAB6A62680B436B
:10409000184980250A4013436360802322685B042B
:1040A00013432360FEF7B2FE0600AD0423682B42E3
:1040B00000D073E6FEF7AAFE801B0228F6D99AE626
:1040C000FEF7A4FEC01B0228D5D994E6FEF79EFE9B
:1040D00080250600AD0423682B4200D15EE6FEF782
:1040E00095FE801B0228F6D985E6C04600100240E6
:1040F000FFFFFFFEFFFFC2FF70B5144C88B0102217
:104100002100684601F000FF210004AD10221031AB
:10411000280001F0F9FE0C220D4E73681A40082A9F
:1041200011D10F206A46990C0140545CF26A02409A
:10413000A95CDB0305D50748FCF702F8604308B02B
:1041400070BD0548FAE70348F9E7C046507F00080C
:104150000010024000127A0000093D00F7B501226C
:10416000434C060023680F0013408B421CD3326877
:10417000930723D4D30729D4012322681A409742F6
:1041800067D333683B4C5B076AD4FFF7B5FF6368BE
:10419000394A1B061B0FD35CD840384B18600020EF
:1041A000FEF70AFE002008E0236893430B432360D8
:1041B000236813409942DAD00120FEBDF0202D493A
:1041C0004B688343B06803434B60D3E7294D726863
:1041D0002B68012A1AD19B03EED503216B688B4310
:1041E00013436B60FEF712FE73680190012B15D12B
:1041F0000C226B681340042BBED0FEF707FE019B18
:10420000C01A1F4B9842F3D90320D6E7022A02D1E5
:104210009B01E2D4D0E79B07DFD4CDE7022B12D07D
:104220000C226B681342A7D0FEF7F0FD019BC01A69
:10423000134B9842F4D9E7E7FEF7E8FD019BC01A5B
:104240000F4B9842E0D80C226B681340082BF3D137
:1042500092E722689A43226022681A42ACD190E722
:104260006368084A1340F268134363608DE7C046F1
:104270000020024000100240C1800008B000002071
:1042800088130000FFF8FFFF014B18687047C04615
:10429000B0000020044B054A5B685B055B0FD35CF4
:1042A000034A1068D840704700100240D1800008CF
:1042B000B0000020F0B5036885B00500DB0328D509
:1042C000802200213B4C5205E3690091134208D142
:1042D000E3691343E361E36913400393039B012301
:1042E00000938027344E7F0033683B422FD0C0229A
:1042F000236A92001340314E3BD1236A1E406B6803
:104300001E43009B2662012B03D1E3692C4A134014
:10431000E3612A68D30706D5032026490B6B834344
:10432000A86803430B63930606D5102021490B6B45
:104330008343E86803430B630020530517D54021EE
:104340001C4A136B8B4329690B4313630FE03368DB
:104350003B433360FEF75AFD019033683B42C6D1C0
:10436000FEF754FD019BC01A6428F6D9032005B05E
:10437000F0BD69680A409342BFD08023226A206A58
:1043800011005B0203432362236A0E48314003405D
:1043900023622162D307B0D5FEF738FD0700022261
:1043A000236A1342A9D1FEF731FD074BC01B984287
:1043B000F5D9DBE70010024000700040FFFCFFFF72
:1043C000FFFFFFEFFFFFFEFF8813000001220368DD
:1043D000D96800201143D96019680A431A607047F0
:1043E00070477047704770470222036810B519691B
:1043F000040011420ED0D96811420BD0053A1A615F
:104400009B69043202779B0700D179E0FFF7E9FF4F
:1044100000232377042223681969114210D0D96838
:1044200011420DD0093A1A61073222779A69C023E6
:104430009B0020001A4269D0FFF7D3FF00232377A7
:1044400008222368196911420ED0D96811420BD095
:10445000113A1A61DB690D32227720009B075BD08D
:10446000FFF7BFFF00232377102223681969114249
:1044700010D0D96811420DD0213A1A611932227731
:10448000DA69C0239B0020001A424BD0FFF7A9FF36
:1044900000232377012223681969114207D0D968C4
:1044A000114204D0033A1A61200001F03BFA802245
:1044B00023681969114208D0D968114205D0023A1F
:1044C000FF3A1A61200000F081F94022236819693F
:1044D000114207D0D968114204D0813A1A612000F4
:1044E000FFF781FF202223681969114207D0D9689C
:1044F000114204D0413A1A61200000F066F910BD63
:10450000FFF76EFF2000FFF76DFF81E7FFF768FF01
:104510002000FFF767FF91E7FFF762FF2000FFF73A
:1045200061FF9FE7FFF75CFF2000FFF75BFFAFE74E
:10453000204A10B50368904206D08024E405A042CA
:1045400002D01D4CA0420CD17024A3434C682343DD
:10455000904212D08024E405A0420ED0164CA04216
:104560000BD0164CA04208D0154CA04205D0154CDB
:10457000A04202D0144CA04203D1144C2340CC687A
:1045800023438024A3434C69234303608B68C362A5
:104590000B688362904208D0094B984205D0094BC2
:1045A000984202D0084B984201D10B690363012362
:1045B000436110BD002C0140000400400020004079
:1045C000004001400044014000480140FFFCFFFF63
:1045D00070B504000120002C14D025003D352B7847
:1045E000DBB2002B05D122003C321370200001F019
:1045F000D5FB022320682B70211DFFF799FF0123B3
:1046000000202B7070BD000030B58468034D0A4354
:104610001B022C4013432343836030BDFF00FFFF88
:10462000F8B5050002233C352A7804001800012A59
:1046300019D02600012720683D362F70337083681B
:104640004F4A134083600B68402B00D16FE016D8AF
:10465000102B00D187E007D8002B00D17DE001238B
:10466000002033702870F8BD202B00D181E0302B62
:10467000F5D17022836893431A00372355E0702BDD
:1046800033D01BD8502B3BD0602BE8D110244B6883
:10469000CA68016A3B4FA1430162846912033C402E
:1046A0002243A024016A82617022A1431B010B43B3
:1046B0000362836893431A00672336E08022520125
:1046C00093420DD0802292019342C8D1CB684A68B0
:1046D0008968FFF799FF80232268DB0191680CE06D
:1046E0000722836893438360B9E7CB684A68896887
:1046F000FFF78AFF7721226893680B439360AEE748
:104700004A68CB68016A046A1B01BC43F027046253
:104710008469BC4323430A24A1430A4383610262A0
:104720007022836893431A0057231343DBE74A68D8
:10473000CB68016A046A1B01BC43F02704628469E8
:10474000BC4323430A24A1430A43836102627022CB
:10475000836893431A004723E7E7702283689343F3
:104760001A000723E1E77022836893431A00172396
:10477000DBE77022836893431A002723D5E7C046FE
:104780008800FFFFFF0FFFFF30B504003C342278A4
:1047900003000220012A17D01D001B683D35287038
:1047A0005A686E3082435A605A6808684968024302
:1047B00080205A609A6882439A609A6800200A436F
:1047C0009A6001232B70207030BD70477047000045
:1047D000036806491A686A300A401A609A682331E9
:1047E000FF318A439A60202303707047DFFEFFFF8A
:1047F00070B506006936337804000220202B24D1DE
:104800000138002921D0002A1FD08023A5685B0130
:104810009D4204D12369002B01D1014215D125000D
:1048200068352B780220012B0FD023005033E16430
:104830005A801A80002321222168E36632700868BA
:104840005F32024318002B700A6070BD70477047DA
:104850007047406A0023020010B55A321380083AAC
:104860001380FFF7F5FF10BD70B504000568C2693D
:10487000836800692968034360693F4E03433F48EA
:10488000134301400B432B606B683D49206A0B408A
:10489000E1680B436B60A369A96803433948014091
:1048A0000B43AB6080231B02B54210D10320364975
:1048B000096B01403548405C9A4213D0082858D80B
:1048C000FBF734FC375742574B5757575000304986
:1048D0008D424CD19A422CD1FFF7DCFC636840003A
:1048E0005B080BE0082821D8FBF716FCF620052012
:1048F000182020201B0063685808264BC0186168E8
:10490000FBF71EFC83B200200F22190091430A001E
:104910001B0721685B0F1343CB6070BDFFF7ECFBF7
:10492000DCE76368580880235B02E7E70120002387
:10493000EAE7FFF7AFFC61684B081818FBF700FCCB
:1049400080B2E8600020E8E76168134B4808C018AF
:10495000FBF7F6FB80B2F060F4E7FFF7CDFB616890
:104960004B08F4E7802361681B024808EFE79A428E
:10497000DCD00120D1E7C04600380140F369FFFFD9
:10498000FFCFFFFFFFF4FFFF00100240B0800008E0
:10499000004400400024F40000127A00436A30B55D
:1049A000DA0706D50168284C4A682240846A224307
:1049B0004A609A0706D50168244C4A682240C46AB6
:1049C00022434A605A0706D50168214C4A682240B2
:1049D000046B22434A601A0706D501681D4C4A68D9
:1049E0002240446B22434A60DA0606D501681A4C1D
:1049F0008A682240846B22438A609A0606D5016841
:104A0000164C8A682240C46B22438A605A0610D52D
:104A10000168134D4A68046C2A4022434A60802290
:104A20005203944205D14A680E4C2240446C224302
:104A30004A601B0606D502680B4953680B40816C1F
:104A40000B43536030BDC046FFFFFDFFFFFFFEFF7D
:104A5000FFFFFBFFFF7FFFFFFFEFFFFFFFDFFFFF1A
:104A6000FFFFEFFFFFFF9FFFFFFFF7FFF8B5040019
:104A70000E0015001F002268D36933409B1B59426A
:104A80004B41AB4201D0002018E0069B0133F3D02C
:104A9000069B002B13D123680C491A6803200A4097
:104AA0001A609A68A331FF318A439A60220020235A
:104AB000693213705370002368342370F8BDFEF719
:104AC000A5F9069BC01B8342D5D2E4E75FFEFFFF3A
:104AD00073B500260400C666FEF798F9164A2368E7
:104AE0000500934208D02200202300206932683458
:104AF00013705370207076BD1B681B070FD423689A
:104B00001B685B07EFD580210C4B00220093C90383
:104B10002B002000FFF7AAFF00280BD1E3E780213C
:104B2000064B32000093890303002000FFF79EFF2D
:104B30000028E4D00320DEE700380140FFFFFF013A
:104B400070B5041E01D1012070BD050069352B78B8
:104B5000DBB2002B04D102006832137001F058F967
:104B60002423012122682B70136820008B431360DB
:104B7000FFF77AFE0128E6D0636A002B02D02000FE
:104B8000FFF70CFF236808495A6820000A402A21D1
:104B90005A609A688A439A60012219680A431A6027
:104BA000FFF796FFD0E7C046FFB7FFFF030030B521
:104BB00069331B7802000220212B0FD114005234DC
:104BC000238811689BB2002B09D10A687E3082438A
:104BD0000A604022086802430A60002030BD80203D
:104BE00095684001D36C85420DD1106900280AD127
:104BF00018880233C005C00D0885D3642388013BA3
:104C00009BB22380E9E7581CD0641B780B85F5E73D
:104C10004021026810B513688B4313600300202203
:104C200069331A70FFF712FE002010BD020070B544
:104C30006A321178036822292DD1010080245C3169
:104C40000D88998C640129408568436DA5421ED169
:104C50000469002C1BD11980023343650100002434
:104C60005A310B88013B9BB20B80A3420DD10368E4
:104C70000C4D19682940196099682335FF35A943FF
:104C8000996020231370FFF7E2FD200070BD5C1CCB
:104C900044651970E2E70822996902240A439A617F
:104CA000F3E7C046DFFEFFFF0F210268F8B5D369C6
:104CB00004001940106808D120252B4205D0284255
:104CC00003D02000FFF7B2FFF8BD9668002961D03D
:104CD000012135000D4003D190277F00384259D083
:104CE0000B4205D0C60503D51162E66E3143E1667D
:104CF00002210B4206D0002D04D01162E66E491845
:104D00003143E16604210B4206D0002D04D011622C
:104D1000E66E02393143E166190708D5810601D4F0
:104D2000002D04D008211162E26E1143E166E26EAB
:104D3000002AC9D02022134204D0104202D0200001
:104D4000FFF774FFE36E20001B0704D423689D68FF
:104D500040231D401AD0FFF73BFD402123689A688D
:104D60000A420FD09A68606E8A439A60002809D080
:104D70001A4B4363FEF7C7F80028A5D0606E436B5B
:104D80009847A1E72000FFF763FD9DE7FFF760FD6F
:104D9000E56699E7802149030B420BD0750209D5DE
:104DA000116222002023693213702000537000F03A
:104DB00017F889E78022134205D0104203D0200063
:104DC000FFF7F4FE80E74022134200D17CE7104257
:104DD00000D179E72000FFF71BFF75E75348000873
:104DE00070470000F0B587B003930CAB1B788403C9
:104DF00004930DAB1B78240E0593002302910192BE
:104E00006400029901221941114226D017009F40E7
:104E1000144D5E00615B049A394361530321B14034
:104E2000C943B240C5680D401543019AC560B24000
:104E300005680D401543019A0560551E012D0CD8DB
:104E40004568BD43039F9F40BFB23D4345608568B1
:104E50002940059DB540294381600133102BD0D1F5
:104E600007B0F0BDA4020020F0B587B00CAC0393EE
:104E700023780DAC04932378059300291ED00024D9
:104E80000D00012325411D420DD007272740BF00FB
:104E90000E33BB40E508AD0045192E6A9E43059BC5
:104EA000BB401E432E620134102CE9D1049B0193B8
:104EB000039B009313000222FFF794FF07B0F0BD9D
:104EC000054A064B904204D0054A064B904200D05A
:104ED000002318007047C046005400400000002026
:104EE000005800404C000020F0B50F2485B00E00A3
:104EF000FA276C4422700293FFF7E2FFB6B2BF00BC
:104F000022000097012331000500FEF77BFA041E02
:104F100004D02800FEF7C1FE012408E00097012319
:104F2000029A31002800FEF705FB0028F1D120008D
:104F300005B0F0BDF0B585B017001E000C00FFF7FE
:104F4000BFFFFA2303AA9B0017705670A1B200930B
:104F500002230500FEF756FA0023984203D02800EA
:104F6000FEF79BFE0123180005B0F0BD10B50C0044
:104F7000FFF7A6FF0523A1B20222FEF773FB431E33
:104F80009841C0B210BD70477FB506000C00FFF716
:104F900097FF344B050006609E423DD18020324A87
:104FA0008003D1690143D161D36903400293029B1D
:104FB000002C09D1032301220193C0211300009288
:104FC0002A48FFF751FF15E0012C07D103232200E7
:104FD0000193C021230000948900F1E7022C06D13F
:104FE000032301220193009213009021F4E703218F
:104FF000042C33D0002401236C61EB60AC602C6185
:10500000EC612C622800FEF7A7F921002800FEF7CA
:1050100047FE200004B070BD154B9E42EAD18020AF
:10502000114AC003D1690143D161D369034003939D
:10503000039B002C06D10122C02101920092130093
:105040000901BDE7012C06D1019400942300220040
:1050500003210848B5E7042CCCD101213000FFF72B
:1050600092FFC7E7005400400010024000040048CF
:10507000005800400014004873B56B46DE1D0D005B
:105080000400017833001B220F48FFF72DFF182280
:10509000337821789343EA001343DBB21B220A489A
:1050A0003370FFF747FF032D06D82800FBF73EF8C3
:1050B0000206080A054B6360002076BD044BFAE740
:1050C000044BF8E7044BF6E7005400402D23FA3B6D
:1050D0002D237A3C90C1F93C90C1793D73B56B4664
:1050E000DE1D0D000400017833001C221048FFF77C
:1050F000FBFE1822337821789343EA001343DBB296
:105100001C220B483370FFF715FF032D07D828002A
:10511000FBF70CF80207090BE2239B05A3600020B4
:1051200076BDE423F9E7E623F7E7E823F5E7C04691
:10513000005400400B0010B5017819220348FFF716
:10514000F9FE431E9841C0B210BDC0460054004055
:10515000F0B585B00193302304005B421943017020
:1051600017000021164A1748FFF70EFF217815484F
:10517000FFF7FCFE05000220002D1ED102ABDE1D54
:105180003300217875220F48FFF7AEFE33780320F5
:10519000682B12D12B006B2221780A48FFF7CAFE38
:1051A00007212000FFF7C6FF39002000FFF796FF18
:1051B00001992000FFF760FF280005B0F0BDC04650
:1051C000801A06000054004080201D4BC00359691E
:1051D00030B5014359615A698BB002408020019279
:1051E000019A59690003014359615A69C025024077
:1051F00080200292029A59698002014359618021FC
:105200005A69C90202400392039A5A690D4C0A4333
:105210005A615B69AD000B40049300222900200015
:10522000049BFDF743FF01230693002305A92000FB
:10523000059507930893FDF789FE0BB030BDC04676
:10524000001002400008004810B5164B164C012211
:105250002360164B200063600023E260A36023619B
:105260006361A361E3612362FEF776F8002803D04F
:1052700042210F4800F0D2FC00212000FEF710FD73
:10528000002803D049210A4800F0C8FC0021200072
:10529000FEF72CFD002803D05021054800F0BEFC8D
:1052A00010BDC04600540040F40200200E0900204A
:1052B000B48000087FB5124B02689A421ED1C02309
:1052C00003220193AE3B029301A9113B0D480393C6
:1052D00004920593FDF73AFE80200B4A8003D169C2
:1052E0000143D161D36900220340009317201100CC
:1052F000009BFDF7A1FD1720FDF7CEFD07B000BD17
:10530000005400400004004800100240102330B553
:10531000A02297B0022401250E93002392030AA82D
:105320000A940D951294139314921593FEF702FDAF
:10533000002800D0FEE7072303900490290001A86D
:1053400001930294FEF70AFF002800D0FEE7212314
:105350000790089005A80593FEF7ACFF041E00D047
:10536000FEE7FEF791FFFA218900FAF7E9FEFDF763
:105370009DFD0420FDF7B4FD0120220021004042E4
:10538000FDF75AFD17B030BD10B5FDF727FDFFF74B
:10539000BDFFFFF719FFFFF757FF00F019FD00F001
:1053A000C1FC124B12481A6840231168FA240B43BF
:1053B0001360FFF70BF800230E481A001900FFF7DF
:1053C000C7FEA4000C4B01221978FA230B489B005E
:1053D000FEF748F90328F5D1802109484900FDF777
:1053E0006BFE2000FDF718FDECE7C04660050020CD
:1053F0005C04002094030020AC000020F402002094
:1054000000080048F7B5FC211B4D1C4B2C6801908F
:105410001C601B4B89051B68181C0093FBF744F8A4
:10542000FDF7D0FB174A184B06000F00FBF722FED2
:1054300002000B0030003900FCF72CF9FDF714FCDA
:10544000211C071C0198FBF729FC391CFBF706FB04
:10545000211CFBF729F8041CFE20391C8005FBF7F2
:105460001DFC0099FBF7FAFA084B2C601860044BFE
:105470001860201CFEBDC046D0020020480300205A
:10548000A8000020CDCCCCCCCCCCEC3F58030020E5
:10549000F7B5FA26344F354DB60039782800009616
:1054A0000123334AFDF7AEFF324C397822000096D3
:1054B00028000E23FEF73EF8237860781B0218437D
:1054C0002D4B00B21B68C018FBF784FD2B4B1860F6
:1054D000A378E0781B021843294B00B21B68C01860
:1054E000FBF778FD274B1860237960791B0218437E
:1054F000254B00B21B68C018FBF76CFD234B1860EE
:10550000A379E0791B02184300B2FBF763FD204941
:10551000FBF75CF91F49FAF7C7FF1F4B1860237AA6
:10552000607A1B0218431D4B00B21B68C018FBF7C2
:1055300051FD1B4B1860A37AE07A1B021843194BEC
:1055400000B21B68C018FBF745FD174B1860237BA2
:10555000607B1B021843154B00B21B68C018FBF799
:1055600039FD134B1860F7BDAC000020F402002099
:10557000AD000020D4030020C00200205805002008
:10558000C402002084030020980000204004002072
:105590000000AA4300000C42B80300209C00002039
:1055A00050040020C802002074030020CC02002018
:1055B000C4030020E221F0B5734B85B0186889055B
:1055C000FBF74CFAE221714B051C1860704B890502
:1055D0001868FBF743FAE2216E4B6F4C8905206097
:1055E0001868FBF73BFA6D4E3060281CFFF70AFF86
:1055F0006B4D28602068FFF705FF6A4C206030681B
:10560000FFF700FF684E071C30602868FDF7DAFAE4
:10561000664A674BFAF734FF002802D0FE239B0549
:105620002B602068FDF7CEFA604A614BFAF728FF3D
:10563000002802D0FE239B052360381CFDF7C2FA28
:105640005A4A5B4BFAF71CFF002803D0FE22564B48
:1056500092051A602868FDF7B5FA544A554BFAF7D7
:10566000FBFE002801D0544B2B602068FDF7AAFAFE
:105670004E4A504BFAF7F0FE002801D04E4B236003
:105680003068FDF79FFA494A4A4BFAF7E5FE0028D1
:1056900001D0494B33603E4B1868FDF793FA3A4E00
:1056A000029003913068FDF78DFA3A4F0400386894
:1056B0000D00FDF787FA2200009001912B002000D9
:1056C0002900FCF71BFC009A019B04000D00100050
:1056D0001900FCF713FC02000B0020002900FBF767
:1056E000C9FC02F007FB02000B0002980399FBF7CC
:1056F000D1FF02F073F90022304BFCF7FFFB0022D0
:105700002F4BFBF7C7FFFDF7AFFA2E4B1860204B6E
:105710001868FDF757FA009001913068FDF752FACA
:10572000040038680D00FDF74DFA220006000F0056
:105730002B0020002900FCF7E1FB320004000D00E3
:105740003B0030003900FCF7D9FB02000B002000C1
:105750002900FBF78FFC02F0CDFA02000B00009845
:105760000199FBF797FF02F039F90022134BFCF780
:10577000C5FB0022124BFBF78DFFFDF775FA124BAC
:10578000186005B0F0BDC046580500207C0300201D
:105790008403002040040020500300206003002008
:1057A000440500205404002054030020AE47E17A51
:1057B00014AEEF3F14AEEFBF000080BF00FAEB4025
:1057C00000408F403C04002064030020404BF7B5AC
:1057D00018684049FAF7FAFF3F4B051C18603F4B29
:1057E0003C491868FAF7F2FF3D4E3E4B39493060AC
:1057F0001868FAF7EBFF3C4C2060281CFFF702FE0C
:105800003A4D28603068FFF7FDFD394E3060206862
:10581000FFF7F8FD374C384B27682D681860391CA6
:10582000281CFBF73BFAFDF7CDF9344A344BFCF763
:1058300065FB0022334BFCF761FB00900191381CA3
:10584000FDF7C0F92D4A2E4BFCF758FB02000B0068
:1058500000980199FBF70EFCFDF706FA2A4B2B4F37
:1058600018603968FAF720FE294B2560294C18602A
:10587000256833683860291C181C0093FBF70EFA62
:10588000FDF7A0F91D4A1E4BFCF738FB00221D4B0B
:10589000FCF734FB0600281C0F00FDF793F9174AAC
:1058A000174BFCF72BFB02000B0030003900FBF715
:1058B000E1FBFDF7D9F9184B184D18602968FAF784
:1058C000F3FD174B28601860009B2360F7BDC046AE
:1058D0005004002000000343EC0300207403002068
:1058E0005C030020C4030020BC0300206C030020E4
:1058F0004C050020D40200208C030020B81E85EB4C
:1059000051B89E3F0000E03F40030020DC02002031
:1059100068030020D8020020CC030020E002002011
:10592000E40300208023F0B5026885B0DB059A42CD
:1059300000D031E199489A4903685A1C0B6802600B
:1059400001330B60052A04DD052B02DD062303600D
:105950000B60FFF79DFDFFF72DFEFFF737FF914C22
:105960002068FDF72FF9904E0090019131688F4D1E
:10597000081CFBF773F82F680390391C381CFBF7E1
:105980006DF8011C0398FAF78FFDFDF71BF902F083
:10599000B1F902000B0000980199FBF77BFE02F0C1
:1059A0001DF80022824BFCF7A9FA824A824BFBF7D2
:1059B00071FEFDF759F9814F38603068FDF702F943
:1059C0000090019121682E68081CFBF747F8311CF4
:1059D0000390301CFBF742F8011C0398FAF764FDB2
:1059E000FDF7F0F802F086F902000B00009801992B
:1059F000FBF750FE01F0F2FF00226D4BFCF77EFA40
:105A00006C4A6D4BFBF746FEFDF72EF96C4E2D6888
:105A100030602068011CFBF721F8291C041C281C9D
:105A2000FBF71CF8011C201CFAF73EFDFDF7CAF835
:105A300002F060F900900191281CFDF7C3F8009A6C
:105A4000019BFBF727FE01F0C9FF0022584BFCF732
:105A500055FA584A584BFBF71DFEFDF705F9594A10
:105A6000594B5A491860138801339BB21380532253
:105A70004B7012230A70564A8B701268554B1A608D
:105A80001A78CA705A780A719A784A71DB78524A41
:105A90008B711268514B1A601A78CA715A780A725F
:105AA0009A784A72DB784E4A8B7212684D4B1A60B4
:105AB0001A78CA725A780A739A784A73DB784A4A13
:105AC0008B731268494B1A601A78CA735A780A7431
:105AD0009A784A74DB788B74454B464A12681A6090
